{
  "_format": "hh-sol-artifact-1",
  "contractName": "WavePortal",
  "sourceName": "contracts/WavePortal.sol",
  "abi": [
    {
      "inputs": [],
      "stateMutability": "payable",
      "type": "constructor"
    },
    {
      "anonymous": false,
      "inputs": [
        {
          "indexed": true,
          "internalType": "address",
          "name": "from",
          "type": "address"
        },
        {
          "indexed": false,
          "internalType": "uint256",
          "name": "timestamp",
          "type": "uint256"
        },
        {
          "indexed": false,
          "internalType": "string",
          "name": "message",
          "type": "string"
        }
      ],
      "name": "NewWave",
      "type": "event"
    },
    {
      "inputs": [],
      "name": "getAllWaves",
      "outputs": [
        {
          "components": [
            {
              "internalType": "address",
              "name": "waver",
              "type": "address"
            },
            {
              "internalType": "string",
              "name": "message",
              "type": "string"
            },
            {
              "internalType": "uint256",
              "name": "timestamp",
              "type": "uint256"
            }
          ],
          "internalType": "struct WavePortal.Wave[]",
          "name": "",
          "type": "tuple[]"
        }
      ],
      "stateMutability": "view",
      "type": "function"
    },
    {
      "inputs": [],
      "name": "getTotalWaves",
      "outputs": [
        {
          "internalType": "uint256",
          "name": "",
          "type": "uint256"
        }
      ],
      "stateMutability": "view",
      "type": "function"
    },
    {
      "inputs": [],
      "name": "getTotalWavesByUser",
      "outputs": [
        {
          "internalType": "uint256",
          "name": "",
          "type": "uint256"
        }
      ],
      "stateMutability": "view",
      "type": "function"
    },
    {
      "inputs": [],
      "name": "getWaversData",
      "outputs": [
        {
          "components": [
            {
              "internalType": "address",
              "name": "waver",
              "type": "address"
            },
            {
              "internalType": "string",
              "name": "message",
              "type": "string"
            },
            {
              "internalType": "uint256",
              "name": "timestamp",
              "type": "uint256"
            }
          ],
          "internalType": "struct WavePortal.Wave[]",
          "name": "",
          "type": "tuple[]"
        }
      ],
      "stateMutability": "view",
      "type": "function"
    },
    {
      "inputs": [
        {
          "internalType": "string",
          "name": "_message",
          "type": "string"
        }
      ],
      "name": "wave",
      "outputs": [],
      "stateMutability": "nonpayable",
      "type": "function"
    },
    {
      "inputs": [],
      "name": "whenUserWavedFirstTime",
      "outputs": [
        {
          "internalType": "uint256",
          "name": "",
          "type": "uint256"
        }
      ],
      "stateMutability": "view",
      "type": "function"
    }
  ],
  "bytecode": "0x60806040526200004f6040518060400160405280600481526020017f59656168000000000000000000000000000000000000000000000000000000008152506200005560201b62000c211760201c565b620001e9565b620000f5816040516024016200006c919062000162565b6040516020818303038152906040527f41304fac000000000000000000000000000000000000000000000000000000007bffffffffffffffffffffffffffffffffffffffffffffffffffffffff19166020820180517bffffffffffffffffffffffffffffffffffffffffffffffffffffffff8381831617835250505050620000f860201b60201c565b50565b60008151905060006a636f6e736f6c652e6c6f679050602083016000808483855afa5050505050565b60006200012e8262000186565b6200013a818562000191565b93506200014c818560208601620001a2565b6200015781620001d8565b840191505092915050565b600060208201905081810360008301526200017e818462000121565b905092915050565b600081519050919050565b600082825260208201905092915050565b60005b83811015620001c2578082015181840152602081019050620001a5565b83811115620001d2576000848401525b50505050565b6000601f19601f8301169050919050565b61191580620001f96000396000f3fe608060405234801561001057600080fd5b50600436106100625760003560e01c8063449d46c0146100675780639a2cdc0814610083578063ac80ff1b146100a1578063bd43a908146100bf578063de1a24d1146100dd578063ff9f414d146100fb575b600080fd5b610081600480360381019061007c9190611064565b610119565b005b61008b6106e5565b6040516100989190611454565b60405180910390f35b6100a9610730565b6040516100b69190611454565b60405180910390f35b6100c7610873565b6040516100d491906112cd565b60405180910390f35b6100e56109c4565b6040516100f29190611454565b60405180910390f35b610103610a90565b60405161011091906112cd565b60405180910390f35b6000600360003373ffffffffffffffffffffffffffffffffffffffff1673ffffffffffffffffffffffffffffffffffffffff1681526020019081526020016000206001018054905090506000811480610214575042601e600360003373ffffffffffffffffffffffffffffffffffffffff1673ffffffffffffffffffffffffffffffffffffffff1681526020019081526020016000206001016001846101bf91906115bc565b815481106101f6577f4e487b7100000000000000000000000000000000000000000000000000000000600052603260045260246000fd5b9060005260206000209060030201600201546102129190611566565b105b610253576040517f08c379a000000000000000000000000000000000000000000000000000000000815260040161024a90611414565b60405180910390fd5b60016000808282546102659190611566565b92505081905550600360003373ffffffffffffffffffffffffffffffffffffffff1673ffffffffffffffffffffffffffffffffffffffff16815260200190815260200160002060000160008154809291906102bf906116d1565b9190505550600360003373ffffffffffffffffffffffffffffffffffffffff1673ffffffffffffffffffffffffffffffffffffffff16815260200190815260200160002060010160405180606001604052803373ffffffffffffffffffffffffffffffffffffffff16815260200184815260200142815250908060018154018082558091505060019003906000526020600020906003020160009091909190915060008201518160000160006101000a81548173ffffffffffffffffffffffffffffffffffffffff021916908373ffffffffffffffffffffffffffffffffffffffff16021790555060208201518160010190805190602001906103c3929190610f59565b506040820151816002015550506104106040518060400160405280601681526020017f257320776176656420772f206d657373616765202573000000000000000000008152503384610cba565b600260405180606001604052803373ffffffffffffffffffffffffffffffffffffffff16815260200184815260200142815250908060018154018082558091505060019003906000526020600020906003020160009091909190915060008201518160000160006101000a81548173ffffffffffffffffffffffffffffffffffffffff021916908373ffffffffffffffffffffffffffffffffffffffff16021790555060208201518160010190805190602001906104cf929190610f59565b506040820151816002015550503373ffffffffffffffffffffffffffffffffffffffff167f5f7e16dc676677766a70e9c5628aa6c54ddb8b6e5188e2ae1e1f17f1ffbea716428460405161052492919061146f565b60405180910390a260006064600154424461053f9190611566565b6105499190611566565b610553919061171a565b90506105946040518060400160405280601681526020017f52616e646f6d20232067656e6572617465643a2025730000000000000000000081525082610d59565b8060018190555060288110156106e0576105e36040518060400160405280600781526020017f257320776f6e210000000000000000000000000000000000000000000000000081525033610df5565b6000655af3107a4000905047811115610631576040517f08c379a000000000000000000000000000000000000000000000000000000000815260040161062890611434565b60405180910390fd5b60003373ffffffffffffffffffffffffffffffffffffffff1682604051610657906112b8565b60006040518083038185875af1925050503d8060008114610694576040519150601f19603f3d011682016040523d82523d6000602084013e610699565b606091505b50509050806106dd576040517f08c379a00000000000000000000000000000000000000000000000000000000081526004016106d4906113f4565b60405180910390fd5b50505b505050565b60006107286040518060400160405280601681526020017f5765206861766520256420746f74616c20776176657300000000000000000000815250600054610d59565b600054905090565b60006107e16040518060600160405280602381526020016118bd6023913933600360003373ffffffffffffffffffffffffffffffffffffffff1673ffffffffffffffffffffffffffffffffffffffff1681526020019081526020016000206001016000815481106107ca577f4e487b7100000000000000000000000000000000000000000000000000000000600052603260045260246000fd5b906000526020600020906003020160020154610e91565b600360003373ffffffffffffffffffffffffffffffffffffffff1673ffffffffffffffffffffffffffffffffffffffff16815260200190815260200160002060010160008154811061085c577f4e487b7100000000000000000000000000000000000000000000000000000000600052603260045260246000fd5b906000526020600020906003020160020154905090565b60606002805480602002602001604051908101604052809291908181526020016000905b828210156109bb57838290600052602060002090600302016040518060600160405290816000820160009054906101000a900473ffffffffffffffffffffffffffffffffffffffff1673ffffffffffffffffffffffffffffffffffffffff1673ffffffffffffffffffffffffffffffffffffffff1681526020016001820180546109209061166e565b80601f016020809104026020016040519081016040528092919081815260200182805461094c9061166e565b80156109995780601f1061096e57610100808354040283529160200191610999565b820191906000526020600020905b81548152906001019060200180831161097c57829003601f168201915b5050505050815260200160028201548152505081526020019060010190610897565b50505050905090565b6000610a486040518060400160405280601681526020017f257320686173207761697665642025642074696d65730000000000000000000081525033600360003373ffffffffffffffffffffffffffffffffffffffff1673ffffffffffffffffffffffffffffffffffffffff16815260200190815260200160002060000154610e91565b600360003373ffffffffffffffffffffffffffffffffffffffff1673ffffffffffffffffffffffffffffffffffffffff16815260200190815260200160002060000154905090565b6060600360003373ffffffffffffffffffffffffffffffffffffffff1673ffffffffffffffffffffffffffffffffffffffff168152602001908152602001600020600101805480602002602001604051908101604052809291908181526020016000905b82821015610c1857838290600052602060002090600302016040518060600160405290816000820160009054906101000a900473ffffffffffffffffffffffffffffffffffffffff1673ffffffffffffffffffffffffffffffffffffffff1673ffffffffffffffffffffffffffffffffffffffff168152602001600182018054610b7d9061166e565b80601f0160208091040260200160405190810160405280929190818152602001828054610ba99061166e565b8015610bf65780601f10610bcb57610100808354040283529160200191610bf6565b820191906000526020600020905b815481529060010190602001808311610bd957829003601f168201915b5050505050815260200160028201548152505081526020019060010190610af4565b50505050905090565b610cb781604051602401610c3591906112ef565b6040516020818303038152906040527f41304fac000000000000000000000000000000000000000000000000000000007bffffffffffffffffffffffffffffffffffffffffffffffffffffffff19166020820180517bffffffffffffffffffffffffffffffffffffffffffffffffffffffff8381831617835250505050610f30565b50565b610d54838383604051602401610cd293929190611341565b6040516020818303038152906040527fe0e9ad4f000000000000000000000000000000000000000000000000000000007bffffffffffffffffffffffffffffffffffffffffffffffffffffffff19166020820180517bffffffffffffffffffffffffffffffffffffffffffffffffffffffff8381831617835250505050610f30565b505050565b610df18282604051602401610d6f9291906113c4565b6040516020818303038152906040527f9710a9d0000000000000000000000000000000000000000000000000000000007bffffffffffffffffffffffffffffffffffffffffffffffffffffffff19166020820180517bffffffffffffffffffffffffffffffffffffffffffffffffffffffff8381831617835250505050610f30565b5050565b610e8d8282604051602401610e0b929190611311565b6040516020818303038152906040527f319af333000000000000000000000000000000000000000000000000000000007bffffffffffffffffffffffffffffffffffffffffffffffffffffffff19166020820180517bffffffffffffffffffffffffffffffffffffffffffffffffffffffff8381831617835250505050610f30565b5050565b610f2b838383604051602401610ea993929190611386565b6040516020818303038152906040527f07c81217000000000000000000000000000000000000000000000000000000007bffffffffffffffffffffffffffffffffffffffffffffffffffffffff19166020820180517bffffffffffffffffffffffffffffffffffffffffffffffffffffffff8381831617835250505050610f30565b505050565b60008151905060006a636f6e736f6c652e6c6f679050602083016000808483855afa5050505050565b828054610f659061166e565b90600052602060002090601f016020900481019282610f875760008555610fce565b82601f10610fa057805160ff1916838001178555610fce565b82800160010185558215610fce579182015b82811115610fcd578251825591602001919060010190610fb2565b5b509050610fdb9190610fdf565b5090565b5b80821115610ff8576000816000905550600101610fe0565b5090565b600061100f61100a846114c4565b61149f565b90508281526020810184848401111561102757600080fd5b61103284828561162c565b509392505050565b600082601f83011261104b57600080fd5b813561105b848260208601610ffc565b91505092915050565b60006020828403121561107657600080fd5b600082013567ffffffffffffffff81111561109057600080fd5b61109c8482850161103a565b91505092915050565b60006110b1838361124a565b905092915050565b6110c2816115f0565b82525050565b6110d1816115f0565b82525050565b60006110e282611505565b6110ec8185611528565b9350836020820285016110fe856114f5565b8060005b8581101561113a578484038952815161111b85826110a5565b94506111268361151b565b925060208a01995050600181019050611102565b50829750879550505050505092915050565b600061115782611510565b6111618185611544565b935061117181856020860161163b565b61117a81611807565b840191505092915050565b600061119082611510565b61119a8185611555565b93506111aa81856020860161163b565b6111b381611807565b840191505092915050565b60006111cb602783611555565b91506111d682611818565b604082019050919050565b60006111ee600083611539565b91506111f982611867565b600082019050919050565b6000611211600f83611555565b915061121c8261186a565b602082019050919050565b6000611234601083611555565b915061123f82611893565b602082019050919050565b600060608301600083015161126260008601826110b9565b506020830151848203602086015261127a828261114c565b915050604083015161128f604086018261129a565b508091505092915050565b6112a381611622565b82525050565b6112b281611622565b82525050565b60006112c3826111e1565b9150819050919050565b600060208201905081810360008301526112e781846110d7565b905092915050565b600060208201905081810360008301526113098184611185565b905092915050565b6000604082019050818103600083015261132b8185611185565b905061133a60208301846110c8565b9392505050565b6000606082019050818103600083015261135b8186611185565b905061136a60208301856110c8565b818103604083015261137c8184611185565b9050949350505050565b600060608201905081810360008301526113a08186611185565b90506113af60208301856110c8565b6113bc60408301846112a9565b949350505050565b600060408201905081810360008301526113de8185611185565b90506113ed60208301846112a9565b9392505050565b6000602082019050818103600083015261140d816111be565b9050919050565b6000602082019050818103600083015261142d81611204565b9050919050565b6000602082019050818103600083015261144d81611227565b9050919050565b600060208201905061146960008301846112a9565b92915050565b600060408201905061148460008301856112a9565b81810360208301526114968184611185565b90509392505050565b60006114a96114ba565b90506114b582826116a0565b919050565b6000604051905090565b600067ffffffffffffffff8211156114df576114de6117d8565b5b6114e882611807565b9050602081019050919050565b6000819050602082019050919050565b600081519050919050565b600081519050919050565b6000602082019050919050565b600082825260208201905092915050565b600081905092915050565b600082825260208201905092915050565b600082825260208201905092915050565b600061157182611622565b915061157c83611622565b9250827fffffffffffffffffffffffffffffffffffffffffffffffffffffffffffffffff038211156115b1576115b061174b565b5b828201905092915050565b60006115c782611622565b91506115d283611622565b9250828210156115e5576115e461174b565b5b828203905092915050565b60006115fb82611602565b9050919050565b600073ffffffffffffffffffffffffffffffffffffffff82169050919050565b6000819050919050565b82818337600083830152505050565b60005b8381101561165957808201518184015260208101905061163e565b83811115611668576000848401525b50505050565b6000600282049050600182168061168657607f821691505b6020821081141561169a576116996117a9565b5b50919050565b6116a982611807565b810181811067ffffffffffffffff821117156116c8576116c76117d8565b5b80604052505050565b60006116dc82611622565b91507fffffffffffffffffffffffffffffffffffffffffffffffffffffffffffffffff82141561170f5761170e61174b565b5b600182019050919050565b600061172582611622565b915061173083611622565b9250826117405761173f61177a565b5b828206905092915050565b7f4e487b7100000000000000000000000000000000000000000000000000000000600052601160045260246000fd5b7f4e487b7100000000000000000000000000000000000000000000000000000000600052601260045260246000fd5b7f4e487b7100000000000000000000000000000000000000000000000000000000600052602260045260246000fd5b7f4e487b7100000000000000000000000000000000000000000000000000000000600052604160045260246000fd5b6000601f19601f8301169050919050565b7f4661696c656420746f207769746864726177206d6f6e65792066726f6d20636f60008201527f6e74726163742e00000000000000000000000000000000000000000000000000602082015250565b50565b7f77616974203330207365636f6e64730000000000000000000000000000000000600082015250565b7f4e6f7420656e6f7567682066756e642e0000000000000000000000000000000060008201525056fe25732068617320776169766564207468652066697273742074696d6520746865202564a26469706673582212208161da9ded5d401d519ad5fe942298c7b53ff8abd2a1593f1ea2b9ffd4c5be2364736f6c63430008040033",
  "linkReferences": {},
  "deployedLinkReferences": {}
}